{"contracts/SwapMultiHop.sol":{"SwapMultiHop":{"abi":[{"inputs":[],"name":"DAI","outputs":[{"internalType":"address","name":"","type":"address"}],"stateMutability":"view","type":"function"},{"inputs":[],"name":"USDC","outputs":[{"internalType":"address","name":"","type":"address"}],"stateMutability":"view","type":"function"},{"inputs":[],"name":"WETH9","outputs":[{"internalType":"address","name":"","type":"address"}],"stateMutability":"view","type":"function"},{"inputs":[{"internalType":"uint256","name":"amountIn","type":"uint256"}],"name":"swapExactInputMultihop","outputs":[{"internalType":"uint256","name":"amountOut","type":"uint256"}],"stateMutability":"nonpayable","type":"function"},{"inputs":[{"internalType":"uint256","name":"amountOut","type":"uint256"},{"internalType":"uint256","name":"amountInMaximum","type":"uint256"}],"name":"swapExactOutputMultihop","outputs":[{"internalType":"uint256","name":"amountIn","type":"uint256"}],"stateMutability":"nonpayable","type":"function"},{"inputs":[],"name":"swapRouter","outputs":[{"internalType":"contract ISwapRouter","name":"","type":"address"}],"stateMutability":"view","type":"function"}],"evm":{"bytecode":{"linkReferences":{},"object":"608060405234801561001057600080fd5b50610f2c806100206000396000f3fe608060405234801561001057600080fd5b50600436106100625760003560e01c80633b85cf6a146100675780634aa4a4fc1461009757806389a30271146100b5578063c31c9c07146100d3578063e0bab4c4146100f1578063edd835571461010f575b600080fd5b610081600480360381019061007c9190610819565b61013f565b60405161008e9190610868565b60405180910390f35b61009f61033c565b6040516100ac91906108c4565b60405180910390f35b6100bd610354565b6040516100ca91906108c4565b60405180910390f35b6100db61036c565b6040516100e8919061093e565b60405180910390f35b6100f9610384565b60405161010691906108c4565b60405180910390f35b61012960048036038101906101249190610959565b61039c565b6040516101369190610868565b60405180910390f35b600061016173c02aaa39b223fe8d0a0e5c4f27ead9083c756cc2333085610531565b61019473c02aaa39b223fe8d0a0e5c4f27ead9083c756cc273e592427a0aece92de3edee1f18e0157c0586156484610689565b60006040518060a00160405280736b175474e89094c44da98b954eedeac495271d0f606473a0b86991c6218b36c1d19d4a2e9eb0ce3606eb48610bb873c02aaa39b223fe8d0a0e5c4f27ead9083c756cc26040516020016101f9959493929190610a13565b60405160208183030381529060405281526020013373ffffffffffffffffffffffffffffffffffffffff16815260200142815260200185815260200184815250905073e592427a0aece92de3edee1f18e0157c0586156473ffffffffffffffffffffffffffffffffffffffff1663f28c0498826040518263ffffffff1660e01b81526004016102889190610b96565b6020604051808303816000875af11580156102a7573d6000803e3d6000fd5b505050506040513d601f19601f820116820180604052508101906102cb9190610bcd565b9150828210156103355761030973c02aaa39b223fe8d0a0e5c4f27ead9083c756cc273e592427a0aece92de3edee1f18e0157c058615646000610689565b61033473c02aaa39b223fe8d0a0e5c4f27ead9083c756cc23033858761032f9190610c29565b610531565b5b5092915050565b73c02aaa39b223fe8d0a0e5c4f27ead9083c756cc281565b73a0b86991c6218b36c1d19d4a2e9eb0ce3606eb4881565b73e592427a0aece92de3edee1f18e0157c0586156481565b736b175474e89094c44da98b954eedeac495271d0f81565b60006103be73c02aaa39b223fe8d0a0e5c4f27ead9083c756cc2333085610531565b6103f173c02aaa39b223fe8d0a0e5c4f27ead9083c756cc273e592427a0aece92de3edee1f18e0157c0586156484610689565b60006040518060a0016040528073c02aaa39b223fe8d0a0e5c4f27ead9083c756cc2610bb873a0b86991c6218b36c1d19d4a2e9eb0ce3606eb486064736b175474e89094c44da98b954eedeac495271d0f604051602001610456959493929190610a13565b60405160208183030381529060405281526020013373ffffffffffffffffffffffffffffffffffffffff1681526020014281526020018481526020016000815250905073e592427a0aece92de3edee1f18e0157c0586156473ffffffffffffffffffffffffffffffffffffffff1663c04b8d59826040518263ffffffff1660e01b81526004016104e69190610cd3565b6020604051808303816000875af1158015610505573d6000803e3d6000fd5b505050506040513d601f19601f820116820180604052508101906105299190610bcd565b915050919050565b6000808573ffffffffffffffffffffffffffffffffffffffff166323b872dd60e01b86868660405160240161056893929190610cf5565b604051602081830303815290604052907bffffffffffffffffffffffffffffffffffffffffffffffffffffffff19166020820180517bffffffffffffffffffffffffffffffffffffffffffffffffffffffff83818316178352505050506040516105d29190610d68565b6000604051808303816000865af19150503d806000811461060f576040519150601f19603f3d011682016040523d82523d6000602084013e610614565b606091505b509150915081801561064257506000815114806106415750808060200190518101906106409190610db7565b5b5b610681576040517f08c379a000000000000000000000000000000000000000000000000000000000815260040161067890610e41565b60405180910390fd5b505050505050565b6000808473ffffffffffffffffffffffffffffffffffffffff1663095ea7b360e01b85856040516024016106be929190610e61565b604051602081830303815290604052907bffffffffffffffffffffffffffffffffffffffffffffffffffffffff19166020820180517bffffffffffffffffffffffffffffffffffffffffffffffffffffffff83818316178352505050506040516107289190610d68565b6000604051808303816000865af19150503d8060008114610765576040519150601f19603f3d011682016040523d82523d6000602084013e61076a565b606091505b509150915081801561079857506000815114806107975750808060200190518101906107969190610db7565b5b5b6107d7576040517f08c379a00000000000000000000000000000000000000000000000000000000081526004016107ce90610ed6565b60405180910390fd5b5050505050565b600080fd5b6000819050919050565b6107f6816107e3565b811461080157600080fd5b50565b600081359050610813816107ed565b92915050565b600080604083850312156108305761082f6107de565b5b600061083e85828601610804565b925050602061084f85828601610804565b9150509250929050565b610862816107e3565b82525050565b600060208201905061087d6000830184610859565b92915050565b600073ffffffffffffffffffffffffffffffffffffffff82169050919050565b60006108ae82610883565b9050919050565b6108be816108a3565b82525050565b60006020820190506108d960008301846108b5565b92915050565b6000819050919050565b60006109046108ff6108fa84610883565b6108df565b610883565b9050919050565b6000610916826108e9565b9050919050565b60006109288261090b565b9050919050565b6109388161091d565b82525050565b6000602082019050610953600083018461092f565b92915050565b60006020828403121561096f5761096e6107de565b5b600061097d84828501610804565b91505092915050565b60008160601b9050919050565b600061099e82610986565b9050919050565b60006109b082610993565b9050919050565b6109c86109c3826108a3565b6109a5565b82525050565b600062ffffff82169050919050565b60008160e81b9050919050565b60006109f5826109dd565b9050919050565b610a0d610a08826109ce565b6109ea565b82525050565b6000610a1f82886109b7565b601482019150610a2f82876109fc565b600382019150610a3f82866109b7565b601482019150610a4f82856109fc565b600382019150610a5f82846109b7565b6014820191508190509695505050505050565b600081519050919050565b600082825260208201905092915050565b60005b83811015610aac578082015181840152602081019050610a91565b60008484015250505050565b6000601f19601f8301169050919050565b6000610ad482610a72565b610ade8185610a7d565b9350610aee818560208601610a8e565b610af781610ab8565b840191505092915050565b610b0b816108a3565b82525050565b610b1a816107e3565b82525050565b600060a0830160008301518482036000860152610b3d8282610ac9565b9150506020830151610b526020860182610b02565b506040830151610b656040860182610b11565b506060830151610b786060860182610b11565b506080830151610b8b6080860182610b11565b508091505092915050565b60006020820190508181036000830152610bb08184610b20565b905092915050565b600081519050610bc7816107ed565b92915050565b600060208284031215610be357610be26107de565b5b6000610bf184828501610bb8565b91505092915050565b7f4e487b7100000000000000000000000000000000000000000000000000000000600052601160045260246000fd5b6000610c34826107e3565b9150610c3f836107e3565b9250828203905081811115610c5757610c56610bfa565b5b92915050565b600060a0830160008301518482036000860152610c7a8282610ac9565b9150506020830151610c8f6020860182610b02565b506040830151610ca26040860182610b11565b506060830151610cb56060860182610b11565b506080830151610cc86080860182610b11565b508091505092915050565b60006020820190508181036000830152610ced8184610c5d565b905092915050565b6000606082019050610d0a60008301866108b5565b610d1760208301856108b5565b610d246040830184610859565b949350505050565b600081905092915050565b6000610d4282610a72565b610d4c8185610d2c565b9350610d5c818560208601610a8e565b80840191505092915050565b6000610d748284610d37565b915081905092915050565b60008115159050919050565b610d9481610d7f565b8114610d9f57600080fd5b50565b600081519050610db181610d8b565b92915050565b600060208284031215610dcd57610dcc6107de565b5b6000610ddb84828501610da2565b91505092915050565b600082825260208201905092915050565b7f5354460000000000000000000000000000000000000000000000000000000000600082015250565b6000610e2b600383610de4565b9150610e3682610df5565b602082019050919050565b60006020820190508181036000830152610e5a81610e1e565b9050919050565b6000604082019050610e7660008301856108b5565b610e836020830184610859565b9392505050565b7f5341000000000000000000000000000000000000000000000000000000000000600082015250565b6000610ec0600283610de4565b9150610ecb82610e8a565b602082019050919050565b60006020820190508181036000830152610eef81610eb3565b905091905056fea2646970667358221220b219aacae50557d1a191a437b5bae940112c871dd547c31d744b26aea3b5648c64736f6c63430008110033","opcodes":"PUSH1 0x80 PUSH1 0x40 MSTORE CALLVALUE DUP1 ISZERO PUSH2 0x10 JUMPI PUSH1 0x0 DUP1 REVERT JUMPDEST POP PUSH2 0xF2C DUP1 PUSH2 0x20 PUSH1 0x0 CODECOPY PUSH1 0x0 RETURN INVALID PUSH1 0x80 PUSH1 0x40 MSTORE CALLVALUE DUP1 ISZERO PUSH2 0x10 JUMPI PUSH1 0x0 DUP1 REVERT JUMPDEST POP PUSH1 0x4 CALLDATASIZE LT PUSH2 0x62 JUMPI PUSH1 0x0 CALLDATALOAD PUSH1 0xE0 SHR DUP1 PUSH4 0x3B85CF6A EQ PUSH2 0x67 JUMPI DUP1 PUSH4 0x4AA4A4FC EQ PUSH2 0x97 JUMPI DUP1 PUSH4 0x89A30271 EQ PUSH2 0xB5 JUMPI DUP1 PUSH4 0xC31C9C07 EQ PUSH2 0xD3 JUMPI DUP1 PUSH4 0xE0BAB4C4 EQ PUSH2 0xF1 JUMPI DUP1 PUSH4 0xEDD83557 EQ PUSH2 0x10F JUMPI JUMPDEST PUSH1 0x0 DUP1 REVERT JUMPDEST PUSH2 0x81 PUSH1 0x4 DUP1 CALLDATASIZE SUB DUP2 ADD SWAP1 PUSH2 0x7C SWAP2 SWAP1 PUSH2 0x819 JUMP JUMPDEST PUSH2 0x13F JUMP JUMPDEST PUSH1 0x40 MLOAD PUSH2 0x8E SWAP2 SWAP1 PUSH2 0x868 JUMP JUMPDEST PUSH1 0x40 MLOAD DUP1 SWAP2 SUB SWAP1 RETURN JUMPDEST PUSH2 0x9F PUSH2 0x33C JUMP JUMPDEST PUSH1 0x40 MLOAD PUSH2 0xAC SWAP2 SWAP1 PUSH2 0x8C4 JUMP JUMPDEST PUSH1 0x40 MLOAD DUP1 SWAP2 SUB SWAP1 RETURN JUMPDEST PUSH2 0xBD PUSH2 0x354 JUMP JUMPDEST PUSH1 0x40 MLOAD PUSH2 0xCA SWAP2 SWAP1 PUSH2 0x8C4 JUMP JUMPDEST PUSH1 0x40 MLOAD DUP1 SWAP2 SUB SWAP1 RETURN JUMPDEST PUSH2 0xDB PUSH2 0x36C JUMP JUMPDEST PUSH1 0x40 MLOAD PUSH2 0xE8 SWAP2 SWAP1 PUSH2 0x93E JUMP JUMPDEST PUSH1 0x40 MLOAD DUP1 SWAP2 SUB SWAP1 RETURN JUMPDEST PUSH2 0xF9 PUSH2 0x384 JUMP JUMPDEST PUSH1 0x40 MLOAD PUSH2 0x106 SWAP2 SWAP1 PUSH2 0x8C4 JUMP JUMPDEST PUSH1 0x40 MLOAD DUP1 SWAP2 SUB SWAP1 RETURN JUMPDEST PUSH2 0x129 PUSH1 0x4 DUP1 CALLDATASIZE SUB DUP2 ADD SWAP1 PUSH2 0x124 SWAP2 SWAP1 PUSH2 0x959 JUMP JUMPDEST PUSH2 0x39C JUMP JUMPDEST PUSH1 0x40 MLOAD PUSH2 0x136 SWAP2 SWAP1 PUSH2 0x868 JUMP JUMPDEST PUSH1 0x40 MLOAD DUP1 SWAP2 SUB SWAP1 RETURN JUMPDEST PUSH1 0x0 PUSH2 0x161 PUSH20 0xC02AAA39B223FE8D0A0E5C4F27EAD9083C756CC2 CALLER ADDRESS DUP6 PUSH2 0x531 JUMP JUMPDEST PUSH2 0x194 PUSH20 0xC02AAA39B223FE8D0A0E5C4F27EAD9083C756CC2 PUSH20 0xE592427A0AECE92DE3EDEE1F18E0157C05861564 DUP5 PUSH2 0x689 JUMP JUMPDEST PUSH1 0x0 PUSH1 0x40 MLOAD DUP1 PUSH1 0xA0 ADD PUSH1 0x40 MSTORE DUP1 PUSH20 0x6B175474E89094C44DA98B954EEDEAC495271D0F PUSH1 0x64 PUSH20 0xA0B86991C6218B36C1D19D4A2E9EB0CE3606EB48 PUSH2 0xBB8 PUSH20 0xC02AAA39B223FE8D0A0E5C4F27EAD9083C756CC2 PUSH1 0x40 MLOAD PUSH1 0x20 ADD PUSH2 0x1F9 SWAP6 SWAP5 SWAP4 SWAP3 SWAP2 SWAP1 PUSH2 0xA13 JUMP JUMPDEST PUSH1 0x40 MLOAD PUSH1 0x20 DUP2 DUP4 SUB SUB DUP2 MSTORE SWAP1 PUSH1 0x40 MSTORE DUP2 MSTORE PUSH1 0x20 ADD CALLER PUSH20 0xFFFFFFFFFFFFFFFFFFFFFFFFFFFFFFFFFFFFFFFF AND DUP2 MSTORE PUSH1 0x20 ADD TIMESTAMP DUP2 MSTORE PUSH1 0x20 ADD DUP6 DUP2 MSTORE PUSH1 0x20 ADD DUP5 DUP2 MSTORE POP SWAP1 POP PUSH20 0xE592427A0AECE92DE3EDEE1F18E0157C05861564 PUSH20 0xFFFFFFFFFFFFFFFFFFFFFFFFFFFFFFFFFFFFFFFF AND PUSH4 0xF28C0498 DUP3 PUSH1 0x40 MLOAD DUP3 PUSH4 0xFFFFFFFF AND PUSH1 0xE0 SHL DUP2 MSTORE PUSH1 0x4 ADD PUSH2 0x288 SWAP2 SWAP1 PUSH2 0xB96 JUMP JUMPDEST PUSH1 0x20 PUSH1 0x40 MLOAD DUP1 DUP4 SUB DUP2 PUSH1 0x0 DUP8 GAS CALL ISZERO DUP1 ISZERO PUSH2 0x2A7 JUMPI RETURNDATASIZE PUSH1 0x0 DUP1 RETURNDATACOPY RETURNDATASIZE PUSH1 0x0 REVERT JUMPDEST POP POP POP POP PUSH1 0x40 MLOAD RETURNDATASIZE PUSH1 0x1F NOT PUSH1 0x1F DUP3 ADD AND DUP3 ADD DUP1 PUSH1 0x40 MSTORE POP DUP2 ADD SWAP1 PUSH2 0x2CB SWAP2 SWAP1 PUSH2 0xBCD JUMP JUMPDEST SWAP2 POP DUP3 DUP3 LT ISZERO PUSH2 0x335 JUMPI PUSH2 0x309 PUSH20 0xC02AAA39B223FE8D0A0E5C4F27EAD9083C756CC2 PUSH20 0xE592427A0AECE92DE3EDEE1F18E0157C05861564 PUSH1 0x0 PUSH2 0x689 JUMP JUMPDEST PUSH2 0x334 PUSH20 0xC02AAA39B223FE8D0A0E5C4F27EAD9083C756CC2 ADDRESS CALLER DUP6 DUP8 PUSH2 0x32F SWAP2 SWAP1 PUSH2 0xC29 JUMP JUMPDEST PUSH2 0x531 JUMP JUMPDEST JUMPDEST POP SWAP3 SWAP2 POP POP JUMP JUMPDEST PUSH20 0xC02AAA39B223FE8D0A0E5C4F27EAD9083C756CC2 DUP2 JUMP JUMPDEST PUSH20 0xA0B86991C6218B36C1D19D4A2E9EB0CE3606EB48 DUP2 JUMP JUMPDEST PUSH20 0xE592427A0AECE92DE3EDEE1F18E0157C05861564 DUP2 JUMP JUMPDEST PUSH20 0x6B175474E89094C44DA98B954EEDEAC495271D0F DUP2 JUMP JUMPDEST PUSH1 0x0 PUSH2 0x3BE PUSH20 0xC02AAA39B223FE8D0A0E5C4F27EAD9083C756CC2 CALLER ADDRESS DUP6 PUSH2 0x531 JUMP JUMPDEST PUSH2 0x3F1 PUSH20 0xC02AAA39B223FE8D0A0E5C4F27EAD9083C756CC2 PUSH20 0xE592427A0AECE92DE3EDEE1F18E0157C05861564 DUP5 PUSH2 0x689 JUMP JUMPDEST PUSH1 0x0 PUSH1 0x40 MLOAD DUP1 PUSH1 0xA0 ADD PUSH1 0x40 MSTORE DUP1 PUSH20 0xC02AAA39B223FE8D0A0E5C4F27EAD9083C756CC2 PUSH2 0xBB8 PUSH20 0xA0B86991C6218B36C1D19D4A2E9EB0CE3606EB48 PUSH1 0x64 PUSH20 0x6B175474E89094C44DA98B954EEDEAC495271D0F PUSH1 0x40 MLOAD PUSH1 0x20 ADD PUSH2 0x456 SWAP6 SWAP5 SWAP4 SWAP3 SWAP2 SWAP1 PUSH2 0xA13 JUMP JUMPDEST PUSH1 0x40 MLOAD PUSH1 0x20 DUP2 DUP4 SUB SUB DUP2 MSTORE SWAP1 PUSH1 0x40 MSTORE DUP2 MSTORE PUSH1 0x20 ADD CALLER PUSH20 0xFFFFFFFFFFFFFFFFFFFFFFFFFFFFFFFFFFFFFFFF AND DUP2 MSTORE PUSH1 0x20 ADD TIMESTAMP DUP2 MSTORE PUSH1 0x20 ADD DUP5 DUP2 MSTORE PUSH1 0x20 ADD PUSH1 0x0 DUP2 MSTORE POP SWAP1 POP PUSH20 0xE592427A0AECE92DE3EDEE1F18E0157C05861564 PUSH20 0xFFFFFFFFFFFFFFFFFFFFFFFFFFFFFFFFFFFFFFFF AND PUSH4 0xC04B8D59 DUP3 PUSH1 0x40 MLOAD DUP3 PUSH4 0xFFFFFFFF AND PUSH1 0xE0 SHL DUP2 MSTORE PUSH1 0x4 ADD PUSH2 0x4E6 SWAP2 SWAP1 PUSH2 0xCD3 JUMP JUMPDEST PUSH1 0x20 PUSH1 0x40 MLOAD DUP1 DUP4 SUB DUP2 PUSH1 0x0 DUP8 GAS CALL ISZERO DUP1 ISZERO PUSH2 0x505 JUMPI RETURNDATASIZE PUSH1 0x0 DUP1 RETURNDATACOPY RETURNDATASIZE PUSH1 0x0 REVERT JUMPDEST POP POP POP POP PUSH1 0x40 MLOAD RETURNDATASIZE PUSH1 0x1F NOT PUSH1 0x1F DUP3 ADD AND DUP3 ADD DUP1 PUSH1 0x40 MSTORE POP DUP2 ADD SWAP1 PUSH2 0x529 SWAP2 SWAP1 PUSH2 0xBCD JUMP JUMPDEST SWAP2 POP POP SWAP2 SWAP1 POP JUMP JUMPDEST PUSH1 0x0 DUP1 DUP6 PUSH20 0xFFFFFFFFFFFFFFFFFFFFFFFFFFFFFFFFFFFFFFFF AND PUSH4 0x23B872DD PUSH1 0xE0 SHL DUP7 DUP7 DUP7 PUSH1 0x40 MLOAD PUSH1 0x24 ADD PUSH2 0x568 SWAP4 SWAP3 SWAP2 SWAP1 PUSH2 0xCF5 JUMP JUMPDEST PUSH1 0x40 MLOAD PUSH1 0x20 DUP2 DUP4 SUB SUB DUP2 MSTORE SWAP1 PUSH1 0x40 MSTORE SWAP1 PUSH28 0xFFFFFFFFFFFFFFFFFFFFFFFFFFFFFFFFFFFFFFFFFFFFFFFFFFFFFFFF NOT AND PUSH1 0x20 DUP3 ADD DUP1 MLOAD PUSH28 0xFFFFFFFFFFFFFFFFFFFFFFFFFFFFFFFFFFFFFFFFFFFFFFFFFFFFFFFF DUP4 DUP2 DUP4 AND OR DUP4 MSTORE POP POP POP POP PUSH1 0x40 MLOAD PUSH2 0x5D2 SWAP2 SWAP1 PUSH2 0xD68 JUMP JUMPDEST PUSH1 0x0 PUSH1 0x40 MLOAD DUP1 DUP4 SUB DUP2 PUSH1 0x0 DUP7 GAS CALL SWAP2 POP POP RETURNDATASIZE DUP1 PUSH1 0x0 DUP2 EQ PUSH2 0x60F JUMPI PUSH1 0x40 MLOAD SWAP2 POP PUSH1 0x1F NOT PUSH1 0x3F RETURNDATASIZE ADD AND DUP3 ADD PUSH1 0x40 MSTORE RETURNDATASIZE DUP3 MSTORE RETURNDATASIZE PUSH1 0x0 PUSH1 0x20 DUP5 ADD RETURNDATACOPY PUSH2 0x614 JUMP JUMPDEST PUSH1 0x60 SWAP2 POP JUMPDEST POP SWAP2 POP SWAP2 POP DUP2 DUP1 ISZERO PUSH2 0x642 JUMPI POP PUSH1 0x0 DUP2 MLOAD EQ DUP1 PUSH2 0x641 JUMPI POP DUP1 DUP1 PUSH1 0x20 ADD SWAP1 MLOAD DUP2 ADD SWAP1 PUSH2 0x640 SWAP2 SWAP1 PUSH2 0xDB7 JUMP JUMPDEST JUMPDEST JUMPDEST PUSH2 0x681 JUMPI PUSH1 0x40 MLOAD PUSH32 0x8C379A000000000000000000000000000000000000000000000000000000000 DUP2 MSTORE PUSH1 0x4 ADD PUSH2 0x678 SWAP1 PUSH2 0xE41 JUMP JUMPDEST PUSH1 0x40 MLOAD DUP1 SWAP2 SUB SWAP1 REVERT JUMPDEST POP POP POP POP POP POP JUMP JUMPDEST PUSH1 0x0 DUP1 DUP5 PUSH20 0xFFFFFFFFFFFFFFFFFFFFFFFFFFFFFFFFFFFFFFFF AND PUSH4 0x95EA7B3 PUSH1 0xE0 SHL DUP6 DUP6 PUSH1 0x40 MLOAD PUSH1 0x24 ADD PUSH2 0x6BE SWAP3 SWAP2 SWAP1 PUSH2 0xE61 JUMP JUMPDEST PUSH1 0x40 MLOAD PUSH1 0x20 DUP2 DUP4 SUB SUB DUP2 MSTORE SWAP1 PUSH1 0x40 MSTORE SWAP1 PUSH28 0xFFFFFFFFFFFFFFFFFFFFFFFFFFFFFFFFFFFFFFFFFFFFFFFFFFFFFFFF NOT AND PUSH1 0x20 DUP3 ADD DUP1 MLOAD PUSH28 0xFFFFFFFFFFFFFFFFFFFFFFFFFFFFFFFFFFFFFFFFFFFFFFFFFFFFFFFF DUP4 DUP2 DUP4 AND OR DUP4 MSTORE POP POP POP POP PUSH1 0x40 MLOAD PUSH2 0x728 SWAP2 SWAP1 PUSH2 0xD68 JUMP JUMPDEST PUSH1 0x0 PUSH1 0x40 MLOAD DUP1 DUP4 SUB DUP2 PUSH1 0x0 DUP7 GAS CALL SWAP2 POP POP RETURNDATASIZE DUP1 PUSH1 0x0 DUP2 EQ PUSH2 0x765 JUMPI PUSH1 0x40 MLOAD SWAP2 POP PUSH1 0x1F NOT PUSH1 0x3F RETURNDATASIZE ADD AND DUP3 ADD PUSH1 0x40 MSTORE RETURNDATASIZE DUP3 MSTORE RETURNDATASIZE PUSH1 0x0 PUSH1 0x20 DUP5 ADD RETURNDATACOPY PUSH2 0x76A JUMP JUMPDEST PUSH1 0x60 SWAP2 POP JUMPDEST POP SWAP2 POP SWAP2 POP DUP2 DUP1 ISZERO PUSH2 0x798 JUMPI POP PUSH1 0x0 DUP2 MLOAD EQ DUP1 PUSH2 0x797 JUMPI POP DUP1 DUP1 PUSH1 0x20 ADD SWAP1 MLOAD DUP2 ADD SWAP1 PUSH2 0x796 SWAP2 SWAP1 PUSH2 0xDB7 JUMP JUMPDEST JUMPDEST JUMPDEST PUSH2 0x7D7 JUMPI PUSH1 0x40 MLOAD PUSH32 0x8C379A000000000000000000000000000000000000000000000000000000000 DUP2 MSTORE PUSH1 0x4 ADD PUSH2 0x7CE SWAP1 PUSH2 0xED6 JUMP JUMPDEST PUSH1 0x40 MLOAD DUP1 SWAP2 SUB SWAP1 REVERT JUMPDEST POP POP POP POP POP JUMP JUMPDEST PUSH1 0x0 DUP1 REVERT JUMPDEST PUSH1 0x0 DUP2 SWAP1 POP SWAP2 SWAP1 POP JUMP JUMPDEST PUSH2 0x7F6 DUP2 PUSH2 0x7E3 JUMP JUMPDEST DUP2 EQ PUSH2 0x801 JUMPI PUSH1 0x0 DUP1 REVERT JUMPDEST POP JUMP JUMPDEST PUSH1 0x0 DUP2 CALLDATALOAD SWAP1 POP PUSH2 0x813 DUP2 PUSH2 0x7ED JUMP JUMPDEST SWAP3 SWAP2 POP POP JUMP JUMPDEST PUSH1 0x0 DUP1 PUSH1 0x40 DUP4 DUP6 SUB SLT ISZERO PUSH2 0x830 JUMPI PUSH2 0x82F PUSH2 0x7DE JUMP JUMPDEST JUMPDEST PUSH1 0x0 PUSH2 0x83E DUP6 DUP3 DUP7 ADD PUSH2 0x804 JUMP JUMPDEST SWAP3 POP POP PUSH1 0x20 PUSH2 0x84F DUP6 DUP3 DUP7 ADD PUSH2 0x804 JUMP JUMPDEST SWAP2 POP POP SWAP3 POP SWAP3 SWAP1 POP JUMP JUMPDEST PUSH2 0x862 DUP2 PUSH2 0x7E3 JUMP JUMPDEST DUP3 MSTORE POP POP JUMP JUMPDEST PUSH1 0x0 PUSH1 0x20 DUP3 ADD SWAP1 POP PUSH2 0x87D PUSH1 0x0 DUP4 ADD DUP5 PUSH2 0x859 JUMP JUMPDEST SWAP3 SWAP2 POP POP JUMP JUMPDEST PUSH1 0x0 PUSH20 0xFFFFFFFFFFFFFFFFFFFFFFFFFFFFFFFFFFFFFFFF DUP3 AND SWAP1 POP SWAP2 SWAP1 POP JUMP JUMPDEST PUSH1 0x0 PUSH2 0x8AE DUP3 PUSH2 0x883 JUMP JUMPDEST SWAP1 POP SWAP2 SWAP1 POP JUMP JUMPDEST PUSH2 0x8BE DUP2 PUSH2 0x8A3 JUMP JUMPDEST DUP3 MSTORE POP POP JUMP JUMPDEST PUSH1 0x0 PUSH1 0x20 DUP3 ADD SWAP1 POP PUSH2 0x8D9 PUSH1 0x0 DUP4 ADD DUP5 PUSH2 0x8B5 JUMP JUMPDEST SWAP3 SWAP2 POP POP JUMP JUMPDEST PUSH1 0x0 DUP2 SWAP1 POP SWAP2 SWAP1 POP JUMP JUMPDEST PUSH1 0x0 PUSH2 0x904 PUSH2 0x8FF PUSH2 0x8FA DUP5 PUSH2 0x883 JUMP JUMPDEST PUSH2 0x8DF JUMP JUMPDEST PUSH2 0x883 JUMP JUMPDEST SWAP1 POP SWAP2 SWAP1 POP JUMP JUMPDEST PUSH1 0x0 PUSH2 0x916 DUP3 PUSH2 0x8E9 JUMP JUMPDEST SWAP1 POP SWAP2 SWAP1 POP JUMP JUMPDEST PUSH1 0x0 PUSH2 0x928 DUP3 PUSH2 0x90B JUMP JUMPDEST SWAP1 POP SWAP2 SWAP1 POP JUMP JUMPDEST PUSH2 0x938 DUP2 PUSH2 0x91D JUMP JUMPDEST DUP3 MSTORE POP POP JUMP JUMPDEST PUSH1 0x0 PUSH1 0x20 DUP3 ADD SWAP1 POP PUSH2 0x953 PUSH1 0x0 DUP4 ADD DUP5 PUSH2 0x92F JUMP JUMPDEST SWAP3 SWAP2 POP POP JUMP JUMPDEST PUSH1 0x0 PUSH1 0x20 DUP3 DUP5 SUB SLT ISZERO PUSH2 0x96F JUMPI PUSH2 0x96E PUSH2 0x7DE JUMP JUMPDEST JUMPDEST PUSH1 0x0 PUSH2 0x97D DUP5 DUP3 DUP6 ADD PUSH2 0x804 JUMP JUMPDEST SWAP2 POP POP SWAP3 SWAP2 POP POP JUMP JUMPDEST PUSH1 0x0 DUP2 PUSH1 0x60 SHL SWAP1 POP SWAP2 SWAP1 POP JUMP JUMPDEST PUSH1 0x0 PUSH2 0x99E DUP3 PUSH2 0x986 JUMP JUMPDEST SWAP1 POP SWAP2 SWAP1 POP JUMP JUMPDEST PUSH1 0x0 PUSH2 0x9B0 DUP3 PUSH2 0x993 JUMP JUMPDEST SWAP1 POP SWAP2 SWAP1 POP JUMP JUMPDEST PUSH2 0x9C8 PUSH2 0x9C3 DUP3 PUSH2 0x8A3 JUMP JUMPDEST PUSH2 0x9A5 JUMP JUMPDEST DUP3 MSTORE POP POP JUMP JUMPDEST PUSH1 0x0 PUSH3 0xFFFFFF DUP3 AND SWAP1 POP SWAP2 SWAP1 POP JUMP JUMPDEST PUSH1 0x0 DUP2 PUSH1 0xE8 SHL SWAP1 POP SWAP2 SWAP1 POP JUMP JUMPDEST PUSH1 0x0 PUSH2 0x9F5 DUP3 PUSH2 0x9DD JUMP JUMPDEST SWAP1 POP SWAP2 SWAP1 POP JUMP JUMPDEST PUSH2 0xA0D PUSH2 0xA08 DUP3 PUSH2 0x9CE JUMP JUMPDEST PUSH2 0x9EA JUMP JUMPDEST DUP3 MSTORE POP POP JUMP JUMPDEST PUSH1 0x0 PUSH2 0xA1F DUP3 DUP9 PUSH2 0x9B7 JUMP JUMPDEST PUSH1 0x14 DUP3 ADD SWAP2 POP PUSH2 0xA2F DUP3 DUP8 PUSH2 0x9FC JUMP JUMPDEST PUSH1 0x3 DUP3 ADD SWAP2 POP PUSH2 0xA3F DUP3 DUP7 PUSH2 0x9B7 JUMP JUMPDEST PUSH1 0x14 DUP3 ADD SWAP2 POP PUSH2 0xA4F DUP3 DUP6 PUSH2 0x9FC JUMP JUMPDEST PUSH1 0x3 DUP3 ADD SWAP2 POP PUSH2 0xA5F DUP3 DUP5 PUSH2 0x9B7 JUMP JUMPDEST PUSH1 0x14 DUP3 ADD SWAP2 POP DUP2 SWAP1 POP SWAP7 SWAP6 POP POP POP POP POP POP JUMP JUMPDEST PUSH1 0x0 DUP2 MLOAD SWAP1 POP SWAP2 SWAP1 POP JUMP JUMPDEST PUSH1 0x0 DUP3 DUP3 MSTORE PUSH1 0x20 DUP3 ADD SWAP1 POP SWAP3 SWAP2 POP POP JUMP JUMPDEST PUSH1 0x0 JUMPDEST DUP4 DUP2 LT ISZERO PUSH2 0xAAC JUMPI DUP1 DUP3 ADD MLOAD DUP2 DUP5 ADD MSTORE PUSH1 0x20 DUP2 ADD SWAP1 POP PUSH2 0xA91 JUMP JUMPDEST PUSH1 0x0 DUP5 DUP5 ADD MSTORE POP POP POP POP JUMP JUMPDEST PUSH1 0x0 PUSH1 0x1F NOT PUSH1 0x1F DUP4 ADD AND SWAP1 POP SWAP2 SWAP1 POP JUMP JUMPDEST PUSH1 0x0 PUSH2 0xAD4 DUP3 PUSH2 0xA72 JUMP JUMPDEST PUSH2 0xADE DUP2 DUP6 PUSH2 0xA7D JUMP JUMPDEST SWAP4 POP PUSH2 0xAEE DUP2 DUP6 PUSH1 0x20 DUP7 ADD PUSH2 0xA8E JUMP JUMPDEST PUSH2 0xAF7 DUP2 PUSH2 0xAB8 JUMP JUMPDEST DUP5 ADD SWAP2 POP POP SWAP3 SWAP2 POP POP JUMP JUMPDEST PUSH2 0xB0B DUP2 PUSH2 0x8A3 JUMP JUMPDEST DUP3 MSTORE POP POP JUMP JUMPDEST PUSH2 0xB1A DUP2 PUSH2 0x7E3 JUMP JUMPDEST DUP3 MSTORE POP POP JUMP JUMPDEST PUSH1 0x0 PUSH1 0xA0 DUP4 ADD PUSH1 0x0 DUP4 ADD MLOAD DUP5 DUP3 SUB PUSH1 0x0 DUP7 ADD MSTORE PUSH2 0xB3D DUP3 DUP3 PUSH2 0xAC9 JUMP JUMPDEST SWAP2 POP POP PUSH1 0x20 DUP4 ADD MLOAD PUSH2 0xB52 PUSH1 0x20 DUP7 ADD DUP3 PUSH2 0xB02 JUMP JUMPDEST POP PUSH1 0x40 DUP4 ADD MLOAD PUSH2 0xB65 PUSH1 0x40 DUP7 ADD DUP3 PUSH2 0xB11 JUMP JUMPDEST POP PUSH1 0x60 DUP4 ADD MLOAD PUSH2 0xB78 PUSH1 0x60 DUP7 ADD DUP3 PUSH2 0xB11 JUMP JUMPDEST POP PUSH1 0x80 DUP4 ADD MLOAD PUSH2 0xB8B PUSH1 0x80 DUP7 ADD DUP3 PUSH2 0xB11 JUMP JUMPDEST POP DUP1 SWAP2 POP POP SWAP3 SWAP2 POP POP JUMP JUMPDEST PUSH1 0x0 PUSH1 0x20 DUP3 ADD SWAP1 POP DUP2 DUP2 SUB PUSH1 0x0 DUP4 ADD MSTORE PUSH2 0xBB0 DUP2 DUP5 PUSH2 0xB20 JUMP JUMPDEST SWAP1 POP SWAP3 SWAP2 POP POP JUMP JUMPDEST PUSH1 0x0 DUP2 MLOAD SWAP1 POP PUSH2 0xBC7 DUP2 PUSH2 0x7ED JUMP JUMPDEST SWAP3 SWAP2 POP POP JUMP JUMPDEST PUSH1 0x0 PUSH1 0x20 DUP3 DUP5 SUB SLT ISZERO PUSH2 0xBE3 JUMPI PUSH2 0xBE2 PUSH2 0x7DE JUMP JUMPDEST JUMPDEST PUSH1 0x0 PUSH2 0xBF1 DUP5 DUP3 DUP6 ADD PUSH2 0xBB8 JUMP JUMPDEST SWAP2 POP POP SWAP3 SWAP2 POP POP JUMP JUMPDEST PUSH32 0x4E487B7100000000000000000000000000000000000000000000000000000000 PUSH1 0x0 MSTORE PUSH1 0x11 PUSH1 0x4 MSTORE PUSH1 0x24 PUSH1 0x0 REVERT JUMPDEST PUSH1 0x0 PUSH2 0xC34 DUP3 PUSH2 0x7E3 JUMP JUMPDEST SWAP2 POP PUSH2 0xC3F DUP4 PUSH2 0x7E3 JUMP JUMPDEST SWAP3 POP DUP3 DUP3 SUB SWAP1 POP DUP2 DUP2 GT ISZERO PUSH2 0xC57 JUMPI PUSH2 0xC56 PUSH2 0xBFA JUMP JUMPDEST JUMPDEST SWAP3 SWAP2 POP POP JUMP JUMPDEST PUSH1 0x0 PUSH1 0xA0 DUP4 ADD PUSH1 0x0 DUP4 ADD MLOAD DUP5 DUP3 SUB PUSH1 0x0 DUP7 ADD MSTORE PUSH2 0xC7A DUP3 DUP3 PUSH2 0xAC9 JUMP JUMPDEST SWAP2 POP POP PUSH1 0x20 DUP4 ADD MLOAD PUSH2 0xC8F PUSH1 0x20 DUP7 ADD DUP3 PUSH2 0xB02 JUMP JUMPDEST POP PUSH1 0x40 DUP4 ADD MLOAD PUSH2 0xCA2 PUSH1 0x40 DUP7 ADD DUP3 PUSH2 0xB11 JUMP JUMPDEST POP PUSH1 0x60 DUP4 ADD MLOAD PUSH2 0xCB5 PUSH1 0x60 DUP7 ADD DUP3 PUSH2 0xB11 JUMP JUMPDEST POP PUSH1 0x80 DUP4 ADD MLOAD PUSH2 0xCC8 PUSH1 0x80 DUP7 ADD DUP3 PUSH2 0xB11 JUMP JUMPDEST POP DUP1 SWAP2 POP POP SWAP3 SWAP2 POP POP JUMP JUMPDEST PUSH1 0x0 PUSH1 0x20 DUP3 ADD SWAP1 POP DUP2 DUP2 SUB PUSH1 0x0 DUP4 ADD MSTORE PUSH2 0xCED DUP2 DUP5 PUSH2 0xC5D JUMP JUMPDEST SWAP1 POP SWAP3 SWAP2 POP POP JUMP JUMPDEST PUSH1 0x0 PUSH1 0x60 DUP3 ADD SWAP1 POP PUSH2 0xD0A PUSH1 0x0 DUP4 ADD DUP7 PUSH2 0x8B5 JUMP JUMPDEST PUSH2 0xD17 PUSH1 0x20 DUP4 ADD DUP6 PUSH2 0x8B5 JUMP JUMPDEST PUSH2 0xD24 PUSH1 0x40 DUP4 ADD DUP5 PUSH2 0x859 JUMP JUMPDEST SWAP5 SWAP4 POP POP POP POP JUMP JUMPDEST PUSH1 0x0 DUP2 SWAP1 POP SWAP3 SWAP2 POP POP JUMP JUMPDEST PUSH1 0x0 PUSH2 0xD42 DUP3 PUSH2 0xA72 JUMP JUMPDEST PUSH2 0xD4C DUP2 DUP6 PUSH2 0xD2C JUMP JUMPDEST SWAP4 POP PUSH2 0xD5C DUP2 DUP6 PUSH1 0x20 DUP7 ADD PUSH2 0xA8E JUMP JUMPDEST DUP1 DUP5 ADD SWAP2 POP POP SWAP3 SWAP2 POP POP JUMP JUMPDEST PUSH1 0x0 PUSH2 0xD74 DUP3 DUP5 PUSH2 0xD37 JUMP JUMPDEST SWAP2 POP DUP2 SWAP1 POP SWAP3 SWAP2 POP POP JUMP JUMPDEST PUSH1 0x0 DUP2 ISZERO ISZERO SWAP1 POP SWAP2 SWAP1 POP JUMP JUMPDEST PUSH2 0xD94 DUP2 PUSH2 0xD7F JUMP JUMPDEST DUP2 EQ PUSH2 0xD9F JUMPI PUSH1 0x0 DUP1 REVERT JUMPDEST POP JUMP JUMPDEST PUSH1 0x0 DUP2 MLOAD SWAP1 POP PUSH2 0xDB1 DUP2 PUSH2 0xD8B JUMP JUMPDEST SWAP3 SWAP2 POP POP JUMP JUMPDEST PUSH1 0x0 PUSH1 0x20 DUP3 DUP5 SUB SLT ISZERO PUSH2 0xDCD JUMPI PUSH2 0xDCC PUSH2 0x7DE JUMP JUMPDEST JUMPDEST PUSH1 0x0 PUSH2 0xDDB DUP5 DUP3 DUP6 ADD PUSH2 0xDA2 JUMP JUMPDEST SWAP2 POP POP SWAP3 SWAP2 POP POP JUMP JUMPDEST PUSH1 0x0 DUP3 DUP3 MSTORE PUSH1 0x20 DUP3 ADD SWAP1 POP SWAP3 SWAP2 POP POP JUMP JUMPDEST PUSH32 0x5354460000000000000000000000000000000000000000000000000000000000 PUSH1 0x0 DUP3 ADD MSTORE POP JUMP JUMPDEST PUSH1 0x0 PUSH2 0xE2B PUSH1 0x3 DUP4 PUSH2 0xDE4 JUMP JUMPDEST SWAP2 POP PUSH2 0xE36 DUP3 PUSH2 0xDF5 JUMP JUMPDEST PUSH1 0x20 DUP3 ADD SWAP1 POP SWAP2 SWAP1 POP JUMP JUMPDEST PUSH1 0x0 PUSH1 0x20 DUP3 ADD SWAP1 POP DUP2 DUP2 SUB PUSH1 0x0 DUP4 ADD MSTORE PUSH2 0xE5A DUP2 PUSH2 0xE1E JUMP JUMPDEST SWAP1 POP SWAP2 SWAP1 POP JUMP JUMPDEST PUSH1 0x0 PUSH1 0x40 DUP3 ADD SWAP1 POP PUSH2 0xE76 PUSH1 0x0 DUP4 ADD DUP6 PUSH2 0x8B5 JUMP JUMPDEST PUSH2 0xE83 PUSH1 0x20 DUP4 ADD DUP5 PUSH2 0x859 JUMP JUMPDEST SWAP4 SWAP3 POP POP POP JUMP JUMPDEST PUSH32 0x5341000000000000000000000000000000000000000000000000000000000000 PUSH1 0x0 DUP3 ADD MSTORE POP JUMP JUMPDEST PUSH1 0x0 PUSH2 0xEC0 PUSH1 0x2 DUP4 PUSH2 0xDE4 JUMP JUMPDEST SWAP2 POP PUSH2 0xECB DUP3 PUSH2 0xE8A JUMP JUMPDEST PUSH1 0x20 DUP3 ADD SWAP1 POP SWAP2 SWAP1 POP JUMP JUMPDEST PUSH1 0x0 PUSH1 0x20 DUP3 ADD SWAP1 POP DUP2 DUP2 SUB PUSH1 0x0 DUP4 ADD MSTORE PUSH2 0xEEF DUP2 PUSH2 0xEB3 JUMP JUMPDEST SWAP1 POP SWAP2 SWAP1 POP JUMP INVALID LOG2 PUSH5 0x6970667358 0x22 SLT KECCAK256 0xB2 NOT 0xAA 0xCA 0xE5 SDIV JUMPI 0xD1 LOG1 SWAP2 LOG4 CALLDATACOPY 0xB5 0xBA 0xE9 BLOCKHASH GT 0x2C DUP8 SAR 0xD5 SELFBALANCE 0xC3 SAR PUSH21 0x4B26AEA3B5648C64736F6C63430008110033000000 "},"methodIdentifiers":{"DAI()":"e0bab4c4","USDC()":"89a30271","WETH9()":"4aa4a4fc","swapExactInputMultihop(uint256)":"edd83557","swapExactOutputMultihop(uint256,uint256)":"3b85cf6a","swapRouter()":"c31c9c07"}}}}}